S01E000074696E7931335F74696D6572305F6F63725F746573742E737265636C
S113000009C032C018C04FC016C015C03DC013C0CF
S113001012C011C011241FBECFE9CDBF10E0A0E66D
S1130020B0E0EAECF0E002C005900D92AE38B10702
S1130030D9F714D048C0E4CFB998C19AB89ABA98FD
S113004085B7836085BF8BB780648BBF1FBC13BE2D
S113005019BE89B7866089BF78940895EDDFE0E61C
S1130060F0E0848986BFFDCF1F920F920FB60F92E6
S113007011248F9312BE83B7836083BF8F910F9037
S11300800FBE0F901F9018951F920F920FB60F92EC
S113009011248F93C09A8BEF82BF8F910F900FBE64
S11300A00F901F9018951F920F920FB60F92112464
S11300B08F93C09883B7887F83BF8F910F900FBEB3
S10D00C00F901F901895F894FFCFDD
S11300CA140028003C004600500055005A005F0006
S11300DA640069006E00730078007D008200870066
S11100EA8C00910096009B00A000A100A200D3
S9030000FC
